:020000040000FA
:100000000C9436020C945E020C945E020C945E0218
:100010000C945E020C945E020C945E020C945E02E0
:100020000C945E020C945E020C945E020C945E02D0
:100030000C945E020C945E020C945E020C945E02C0
:100040000C9463240C945E020C94D3240C94AD2481
:100050000C945E020C945E020C945E020C945E02A0
:100060000C9405250C945E0200407A10F35A00A00F
:10007000724E18090010A5D4E80000E87648170071
:1000800000E40B54020000CA9A3B000000E1F505B1
:10009000000080969800000040420F000000A086FB
:1000A00001000000102700000000E803000000002D
:1000B0006400000000000A000000000001000000D1
:1000C00000002C76D888DC674F0823DFC1DFAE59EB
:1000D000E1B1B796E5E3E453C63AE651997696E87E
:1000E000E6C28426EB898C9B62ED407C6FFCEFBC02
:1000F0009C9F40F2BAA56FA5F490055A2AF75C932D
:100100006B6CF9676DC11BFCE0E40D47FEF520E662
:10011000B500D0ED902E0300943577050080841E45
:10012000080000204E0A000000C80C333333330FA0
:10013000986E12831141EF8D2114893BE65516CF3D
:10014000FEE6DB18D1844B381BF77C1D901DA4BB49
:10015000E424203284725E228100C9F124ECA1E5FE
:100160003D275D2000626C6E6B696E66006D637585
:1001700000302E302E300066772D74797065005473
:100180004D504C326C47463831504D3700627569DE
:100190006C640041756720323120323032342030B7
:1001A000313A35353A343000626C796E6B00312E5D
:1001B000332E3200682D626561740034350062753B
:1001C00066662D696E0032353600646576004172D0
:1001D0006475696E6F20556E6F00637075004154D1
:1001E0006D6567613332385000636F6E005735318B
:1001F0003030000000436F6E6E656374696E672077
:10020000746F2000436F6E6E656374696E6720744F
:100210006F20000D0A202020205F5F5F20205F5F9D
:10022000202020202020202020205F5F0D0A202079
:10023000202F205F20292F202F5F205F5F5F5F5FCF
:1002400020202F202F5F5F0D0A20202F205F2020ED
:100250002F202F202F2F202F205F205C2F202027C2
:100260005F2F0D0A202F5F5F5F5F2F5F2F5C5F2C7A
:10027000202F5F2F2F5F2F5F2F5C5F5C0D0A2020E8
:100280002020202020202F5F5F5F2F2076312E330B
:100290002E32206F6E2041726475696E6F20556E2C
:1002A0006F0D0A0D0A20235374616E6457697468D8
:1002B000556B7261696E65202020206874747073BC
:1002C0003A2F2F6269742E6C792F737775610D0A3E
:1002D0000D0A0049503A0044484350204661696C79
:1002E0006564210047657474696E672049502E2E3D
:1002F0002E0000000000240027002A00000000005B
:10030000250028002B006D73292E00526561647949
:10031000202870696E673A20000000000023002644
:10032000002900040404040404040402020202027A
:1003300002030303030303010204081020408001A9
:100340000204081020010204081020000000080028
:100350000201000003040700000000000000008903
:100360000289028902890289028902890289028935
:100370000289028902890289028902890289028925
:100380000289028902890289028902890289028915
:100390000289028902890289028902890289023757
:1003A0000C8802110C8802EF0BC70B8802880288A8
:1003B00002880288028802880288028802880288ED
:1003C00002880288028802880288028802880288DD
:1003D000028802880288028802880288028802490C
:1003E0006E76616C696420485720636D643A200022
:1003F0005365727665723A2000526564697265636E
:1004000074696E6720746F200052656164790050D2
:1004100061636B657420746F6F206269673A2000B6
:10042000436F6E6E656374206661696C65642E202F
:10043000636F64653A2000496E76616C696420617F
:1004400075746820746F6B656E004C6F67696E2001
:1004500074696D656F757400486561727462656179
:10046000742074696D656F757400C62611241FBEF3
:10047000CFEFD8E0DEBFCDBF13E0A0E0B1E0ECE805
:10048000F0E702C005900D92A833B107D9F726E036
:10049000A8E3B3E001C01D92A737B207E1F712E06D
:1004A000C6E3D2E004C02197FE010E944537C53360
:1004B000D107C9F70E94BB270C9444380C94000064
:1004C000EBE8F4E0A089B18982E08C93A485B5853E
:1004D0001C92A685B78587E68C93108EA489B58972
:1004E00086E08C93A289B3898C9180618C93A289D8
:1004F000B3898C9188608C93A289B3898C91806830
:100500008C930288F389E02D80818F7D808308950C
:10051000089508958CBD9DBD089520E3FC012083BE
:100520003296862F82958F706F706A3030F4605DDE
:100530006293682F8111F5CF0895695CF9CFFC01B2
:10054000818D928D0895833081F028F4813099F067
:100550008230A9F008958730A9F08830C9F084303E
:10056000B1F4809180008F7D03C0809180008F77EF
:1005700080938000089584B58F7784BD089584B5F5
:100580008F7DFBCF8091B0008F778093B00008956E
:100590008091B0008F7DF9CF1F93CF93DF93282FE9
:1005A00030E0F901E55BFC4F8491F901E95CFC4F17
:1005B000D491F901ED5DFC4FC491CC23A9F0162F25
:1005C00081110E94A302EC2FF0E0EE0FFF1FE45018
:1005D000FD4FA591B4918FB7F894EC91111108C01B
:1005E000D095DE23DC938FBFDF91CF911F910895CB
:1005F000DE2BF8CFCF93DF9390E0FC01E95CFC4F5A
:1006000024918D5D9C4FFC0184918823C9F090E07A
:10061000880F991FFC01EE50FD4FA591B491FC018C
:10062000E450FD4FC591D49161110DC09FB7F8946E
:100630008C91209582238C938881282328839FBFC7
:10064000DF91CF910895623051F49FB7F8943C91B7
:10065000822F809583238C93E8812E2BEFCF8FB749
:10066000F894EC912E2B2C938FBFEACF1F93CF934E
:10067000DF93182FEB0161E00E94FA02209739F412
:1006800060E0812FDF91CF911F910C94CC02CF3F7E
:10069000D10511F461E0F5CFE12FF0E0E55BFC4F0F
:1006A000E491E33031F140F4E130B1F0E230E1F0D7
:1006B000C038D1057CF7E4CFE73029F1E83059F1B3
:1006C000E430B1F780918000806280938000D09305
:1006D0008B00C0938A0004C084B5806884BDC7BD08
:1006E000DF91CF911F91089584B5806284BDC8BD0C
:1006F000F7CF80918000806880938000D09389003C
:10070000C0938800EDCF8091B00080688093B000E6
:10071000C093B300E5CF8091B00080628093B000B9
:10072000C093B400DDCF8E3008F08E5087708064A7
:1007300080937C0080917A00806480937A0080911D
:100740007A0086FDFCCF8091780090917900089521
:100750003FB7F89480916A0490916B04A0916C0467
:10076000B0916D0426B5A89B05C02F3F19F00196E6
:10077000A11DB11D3FBFBA2FA92F982F8827BC01FB
:10078000CD01620F711D811D911D42E0660F771F23
:10079000881F991F4A95D1F708958F929F92AF9223
:1007A000BF92CF92DF92EF92FF926B017C010E9489
:1007B000A8034B015C01C114D104E104F104B9F0B8
:1007C0000E94A803681979098A099B09683E734049
:1007D0008105910580F321E0C21AD108E108F108F2
:1007E00088EE880E83E0981EA11CB11CE4CFFF9018
:1007F000EF90DF90CF90BF90AF909F908F90089533
:100800002FB7F89460916604709167048091680432
:10081000909169042FBF08950895089508954F9207
:100820005F926F927F92AF92BF92CF92DF92EF92E0
:10083000FF920F931F93CF93DF93EC016B017B012A
:10084000E40EF51E8B015801AC18BD080E151F05EE
:1008500011F10E940004688779878A879B87E88165
:10086000F9810284F385E02DCE01099597FF23C01D
:100870000E940004488459846A847B846419750941
:10088000860997094C805D806E807F8064157505B0
:100890008605970520F3C501DF91CF911F910F9138
:1008A000FF90EF90DF90CF90BF90AF907F906F90D0
:1008B0005F904F900895F80181938F01C4CFDC01C0
:1008C000ED91FC910190F081E02D0994AF92BF92DF
:1008D000CF92DF92EF92FF920F931F93CF93DF930C
:1008E0006C017B018B01040F151FEB015E01AE183B
:1008F000BF08C017D10759F06991D601ED91FC915D
:100900000190F081E02DC6010995892B79F7C50189
:10091000DF91CF911F910F91FF90EF90DF90CF90DB
:10092000BF90AF900895FC01538D448D252F30E08A
:10093000842F90E0821B930B541710F0CF960895EC
:1009400001970895FC01918D828D981761F0A28D19
:10095000AE0FBF2FB11D5D968C91928D9F5F9F73DF
:10096000928F90E008958FEF9FEF0895FC01918D95
:10097000828D981731F0828DE80FF11D858D90E002
:1009800008958FEF9FEF0895FC01918D228D892F9F
:1009900090E0805C9F4F821B91098F739927089587
:1009A0008BE894E00E94C40421E0892B09F420E044
:1009B000822F089580E090E0892B29F00E94D004D6
:1009C00081110C9400000895FC01A48DA80FB92F8B
:1009D000B11DA35ABF4F2C91848D90E001968F7367
:1009E0009927848FA689B7892C93A089B1898C9186
:1009F000837080648C93938D848D981306C00288D5
:100A0000F389E02D80818F7D80830895EF92FF929E
:100A10000F931F93CF93DF93EC0181E0888F9B8D21
:100A20008C8D98131AC0E889F989808185FF15C0DB
:100A30009FB7F894EE89FF896083E889F9898081FE
:100A40008370806480839FBF81E090E0DF91CF91CD
:100A50001F910F91FF90EF900895F62E0B8D10E0EF
:100A60000F5F1F4F0F731127E02E8C8D8E110CC05E
:100A70000FB607FCFACFE889F989808185FFF5CFA9
:100A8000CE010E94E404F1CFEB8DEC0FFD2FF11DA0
:100A9000E35AFF4FF0829FB7F8940B8FEA89FB89E6
:100AA00080818062CFCF0F931F93CF93DF938C0110
:100AB000D0E0C0E0F801EC0FFD1F6491662341F027
:100AC0008BE894E00E940605892B11F02196F2CF65
:100AD000CE01DF91CF911F910F910895682F8BE880
:100AE00094E00C940605CF93DF93EC01888D882366
:100AF000B9F0AA89BB89E889F9898C9185FD03C081
:100B0000808186FD0DC00FB607FCF7CF8C9185FF65
:100B1000F2CF808185FFEDCFCE010E94E404E9CFC2
:100B2000DF91CF91089520917A03260F3327331F49
:100B300021323105ECF42091C303FC0190E080E008
:100B4000243069F082E00895A0917A032191AC01EC
:100B5000465A5C4FA40FB52FB11D2C9301968617F2
:100B600098F380917A03680F60937A0380E0089588
:100B700081E008951092C30381E08093C203109234
:100B80009D0361E082E10E94CC0261E083E10E946A
:100B9000CC02E9EBF0E080818E7F808380818D7FC5
:100BA000808388E48093B80085E48093BC00089536
:100BB000CF93DF9391E0909359038823B9F0C091CC
:100BC000B800D091BA008091BC008A7B8093BC00B1
:100BD00060E082E10E94CC0260E083E10E94CC02EE
:100BE0000E94BA05D093BA00C093B800DF91CF91AC
:100BF0000895E091600480915F04E81730F4F0E01C
:100C0000E75CFC4F808190E008958FEF9FEF08959F
:100C10009091600480915F042FEF3FEF981748F4A4
:100C2000E92FF0E0E75CFC4F208130E09F5F90937C
:100C30006004C901089580915F0490916004891B4C
:100C4000990B0895CF92DF92EF92FF920F931F932B
:100C5000CF93DF937C01CB018A012091C90322232A
:100C600089F0EB016B01C40ED51ECC15DD0569F0D2
:100C70006991D701ED91FC910190F081E02DC701C0
:100C80000995F3CF642F0E949305C801DF91CF919E
:100C90001F910F91FF90EF90DF90CF900895CF9329
:100CA000DF931F92CDB7DEB769832091C90322235A
:100CB000F9F020915D04203258F021E030E0FC0191
:100CC0003383228390E080E00F90DF91CF910895ED
:100CD00080915E04E82FF0E0E653FC4F9981908309
:100CE0008F5F80935E0480935D0481E090E0ECCFA1
:100CF00061E0CE0101960E949305F7CFCF92DF927B
:100D0000EF92FF920F931F93CF93DF93FC01C48167
:100D100021E02093C903C093EA0310925E0410926D
:100D20005D048385682B88E295E00E944F06D09190
:100D30005D04D13208F092C00E94A8036B017C01CF
:100D40008091C303811165C082E08093C30381E079
:100D50008093C2038FEF8093C1031092C003D0939E
:100D6000BF03AAECB3E0EFE9F3E080E0D81385C05D
:100D700010929E0380919E03CC0FC82BC0939E03BC
:100D800080919D03813009F07CC010929D030E94E8
:100D9000A8036B017C0180919E038093BB0080912E
:100DA000C5039091C603A091C703B091C803892BD6
:100DB0008A2B8B2B99F00E94A8030091C5031091F8
:100DC000C6032091C7033091C8036C197D098E09B1
:100DD0009F090617170728073907E0F18091BC0023
:100DE00083FDD9CF85EC8093BC000E94A8036B01E2
:100DF0007C018091C303823009F445C08091C10316
:100E00008F3F61F18091C103803241F18091C10334
:100E100025C08091C5039091C603A091C703B091EE
:100E2000C803892B8A2B8B2B09F48ACF0E94A80335
:100E30000091C5031091C6032091C7033091C803E8
:100E40006C197D098E099F090617170728073907AE
:100E500008F076CF8091C4030E94D80510925E04FA
:100E600010925D041092C903DF91CF911F910F91F1
:100E7000FF90EF90DF90CF9008959D9191938F5FB9
:100E800075CF85EEB0CF8091C5039091C603A09138
:100E9000C703B091C803892B8A2B8B2B09F4A9CFE8
:100EA0000E94A8030091C5031091C6032091C703B7
:100EB0003091C8036C197D098E099F090617170721
:100EC0002807390708F095CFC5CFFC0120812EBD3A
:100ED0009B012150310941F051810DB407FEFDCF36
:100EE0004EB55EBD4193F5CF61507109860F971FD6
:100EF0000DB407FEFDCF2EB5FC0120830895E091CF
:100F0000EC03F091ED0380819091EB03892B8083BA
:100F10000895E091EC03F091ED0390818091EB0353
:100F200080958923808308958EBD00000DB407FE4F
:100F3000FDCF8EB50895AF92BF92CF92DF92EF9220
:100F4000FF920F931F93CF93DF93CDB7DEB7289710
:100F50000FB6F894DEBF0FBECDBF8C017B016A01D6
:100F600080918A048333E1F45801A40EB51EA016C3
:100F7000B10609F46FC00E94890780EF0E949407B0
:100F8000812F0E949407802F0E9494070F5F1F4FAC
:100F9000F70181917F010E9494070E947F07E7CFAC
:100FA0005B01A40EB51E8433C1F40E948907198326
:100FB0000A838D2D80688B83CC8264E070E0CE0143
:100FC00001960E946507AE14BF0409F441C0F70101
:100FD00081917F010E949407F6CF0E9489070F3FFD
:100FE000110509F028F419820A8384E08B830CC070
:100FF00017FD17C019820A8333E0169507953A95B5
:10100000E1F7007E0C600B8386E0C816D104A0F5E2
:10101000F701DE011496EA15FB0599F081918D9395
:10102000FACFC80126E0969587952A95E1F7807E4C
:1010300019830A830115104C10F48461D7CF8C6199
:10104000D5CFB6016D5F7F4FCE0101960E94650737
:101050000E947F07C60128960FB6F894DEBF0FBE28
:10106000CDBFDF91CF911F910F91FF90EF90DF9057
:10107000CF90BF90AF90089563E070E0CE010196ED
:101080000E946507F70181917F010E949407AE14C9
:10109000BF04C1F7DDCFCF93DF931F92CDB7DEB78B
:1010A000898341E050E0BE016F5F7F4F90E080E0B8
:1010B0000E949B070F90DF91CF91089590E02091BF
:1010C0008A04233339F40C96982F990F990F990FAE
:1010D00080E008954896F8CFDA01E091EF03F0E060
:1010E000FE2FEE27E60FF71F90E0982F8827A90123
:1010F000BD018E0F9F1F0C949B07CF93DF9300D0F1
:10110000CDB7DEB779836A8322E030E0AE014F5F6E
:101110005F4F60E170E00E946C080F900F90DF91CC
:10112000CF910895CF93DF9300D0CDB7DEB7798309
:101130006A8322E030E0AE014F5F5F4F64E070E011
:101140000E946C080F900F90DF91CF910895CF937C
:10115000DF931F92CDB7DEB72091EF0330E0322F3F
:101160002227260F371F90E0982F8827498341E0D8
:1011700050E0BE016F5F7F4F820F931F0E949B075D
:101180000F90DF91CF910895CF93DF931F92CDB74A
:10119000DEB76983DC01ED91FC910280F381E02DE3
:1011A00041E050E0BE016F5F7F4F09950F90DF91E6
:1011B000CF910895FC019485FB018485981303C0A9
:1011C00081E0943008F080E00895CF93DF931F9280
:1011D000CDB7DEB76983DC01ED91FC910280F3812C
:1011E000E02D41E050E0BE016F5F7F4F09950F9009
:1011F000DF91CF9108950895FF920F931F93CF939E
:10120000DF93EB01FC01178A168A2A81211109C09C
:101210002B81211106C02C81211103C02D81222395
:1012200001F141155105E9F08A01FC01F08C80E5DE
:1012300091E00E948A02AE014E5F5F4F24E030E0F1
:101240006CE070E08F2D0E946C08B8018F2D0E9419
:101250007D0881E090E0DF91CF911F910F91FF9089
:10126000089580E0F7CFFC01848595850895FC0101
:101270008489958908952BEC31E0FC01318320832A
:10128000FB014089518962897389FC014283538340
:10129000648375830895DC01ED91FC91048CF58DD8
:1012A000E02D099490E080E008958EE00E94930381
:1012B000BC01990F880B990B0E94953420E030E017
:1012C00040EA50E40E94F43420E030E040E85AE381
:1012D0000E94F4342AE037ED43E25CE30E944C368E
:1012E000089590E080E00E946E0590E080E00C940C
:1012F0006E0590E080E00E946E0581E090E00C9425
:101300006E05CF9380E390E00E946E058BE894E039
:101310000E94C404892BD1F38BE894E00E94A204BC
:10132000C82F809338038BE894E00E94C404892B73
:10133000D1F38BE894E00E94A20420E03C2FA901A5
:10134000482BCA01CF910895FC019485992369F037
:1013500080819181DC01ED91FC910688F789E02D77
:10136000099591E0811101C090E0892F0895DC0179
:101370001C961C921C978D919C91009739F0DC0172
:10138000ED91FC910488F589E02D09940895FC0104
:10139000768765870895DC01ED91FC9102A0F3A1A9
:1013A000E02D099591E089270895862F089581E021
:1013B0008627089521E0FC018485843008F020E030
:1013C000822F089508950F931F93CF938C01C62FFA
:1013D0000E947E066C2F6460C8010E947E066C2FFE
:1013E0006B7FC8010E947E0683EC90E00197F1F7C5
:1013F000CF911F910F9108950F931F93CF93DF9378
:101400008C01D62FC42F607F642B0E94E30980E1FA
:10141000D89FB00111246C2BC801DF91CF911F918F
:101420000F910C94E309CF93DF93CDB7DEB72897E4
:101430000FB6F894DEBF0FBECDBF98E0EDE2F1E04D
:10144000DE01119601900D929A95E1F79091720547
:10145000961708F46FEF262F30E0220F331F41E07C
:1014600050E04C0F5D1F240F351FF9016081680F9C
:10147000606840E08AE695E028960FB6F894DEBFF3
:101480000FBECDBFDF91CF910C94FC0941E00E94CB
:10149000FC0981E090E00895FB0101900020E9F74C
:1014A0003197AF01461B570BDC01ED91FC91028097
:1014B000F381E02D0994CF93DF930E945305EC0153
:1014C0006DEC71E08BE894E00E944C0A8C0F9D1F3C
:1014D000DF91CF9108958F929F92AF92BF92EF923A
:1014E000FF920F931F93CF93DF93CDB7DEB7A197F2
:1014F0000FB6F894DEBF0FBECDBF7C01FA01CB0161
:1015000019A2223008F42AE08E010F5D1F4F822EAF
:10151000912CB12CA12CBF01A50194010E941B3676
:10152000F901CA016A300CF5605DD8016E938D0136
:10153000232B242B252B79F790E080E0109721F0C6
:10154000BD01C7010E944C0AA1960FB6F894DEBFF8
:101550000FBECDBFDF91CF911F910F91FF90EF9004
:10156000BF90AF909F908F900895695CDECFCF932E
:10157000DF93AC0170E060E02AE08BE894E00E9429
:101580006B0AEC016DEC71E08BE894E00E944C0A70
:101590008C0F9D1FDF91CF910895462F50E070E092
:1015A00060E02AE00C946B0A8F929F92AF92BF92F8
:1015B000CF92DF92EF92FF920F931F93CF93DF931F
:1015C0007C018B014C0182E0880E911C5701E5E003
:1015D000AE0EB11CD0E0C0E0F40161914F01C80132
:1015E0000E94CD0A6C016EE2C8010E945F048C0D5E
:1015F0009D1DC80FD91F8A149B0471F7F7016581DF
:10160000C8010E94CD0A8C0F9D1FDF91CF911F91C1
:101610000F91FF90EF90DF90CF90BF90AF909F9091
:101620008F9008956BE58BE894E00E945F040E9420
:101630000004AB01BC012AE08BE894E00E946B0A35
:1016400082E691E00C9453056115710511F00C943C
:101650004C0A90E080E00895EF92FF920F931F9361
:10166000CF93DF9300D000D000D0CDB7DEB78C0190
:101670007B01DC0118968D919C91892BB1F10E9420
:10168000120B85EF91E00E945305F801608571858A
:101690008BE894E00E94240B6AE38BE894E00E94BC
:1016A0005F04C7010E94B70AD8018D919C911197E0
:1016B00018966D917C91DC01ED91FC910088F18987
:1016C000E02DA701099521E0019709F020E0822F84
:1016D00026960FB6F894DEBF0FBECDBFDF91CF9137
:1016E0001F910F91FF90EF9008950E94120B84E0DC
:1016F00092E00E945305F80164818BE894E00E9417
:10170000CD0A6EE28BE894E00E945F04D801159642
:101710006C918BE894E00E94CD0A6EE28BE894E035
:101720000E945F04F80166818BE894E00E94CD0A74
:101730006EE28BE894E00E945F04D80117966C91EA
:101740008BE894E00E94CD0A6DEC71E08BE894E0A8
:101750000E944C0AF80180819181DC01ED91FC919D
:101760000684F785E02D2BEC31E03A832983D801FC
:1017700014964D915D916D917C9117974B835C838D
:101780006D837E83A701BE016F5F7F4F9BCFFB01FF
:10179000808191810E94BC31892B91F081E090E0A1
:1017A0000E946E0581E090E00E946E0561E087E096
:1017B0000E94130A60ED71E08AE695E00C94240B18
:1017C00081E090E00E946E0590E080E00E946E054E
:1017D00061E087E00E94130A6AED71E0EDCFFB0142
:1017E000808191810E94BC3121E0009709F420E0C2
:1017F00020936104892B61F00E94790961E087E000
:101800000E94130A64EE71E08AE695E00C94240BC2
:101810000E94710961E087E00E94130A6EEE71E098
:10182000F3CFFB01808191810E94BC3121E00097C0
:1018300009F420E020936204892B71F061E085E0D7
:101840000E94CC0260E087E00E94130A68EF71E01A
:101850008AE695E00C94240B60E085E00E94CC02BF
:1018600060E087E00E94130A61E072E0F1CFFB01C3
:10187000808191810E94BC31892B71F061E084E00C
:101880000E94CC0260E087E00E94130A6AE072E0E6
:101890008AE695E00C94240B60E084E00E94CC0280
:1018A00060E087E00E94130A64E172E0F1CF0C94DB
:1018B0008F30AF92BF92CF92DF92EF92FF920F9351
:1018C0001F93CF93DF9300D000D0CDB7DEB78C014C
:1018D0006B017A0180918A048333E9F45B0168012A
:1018E000C40ED51EC016D106A9F10E9489078FE04B
:1018F0000E949407812F0E949407802F0E949407D2
:101900000F5F1F4F80E00E949407F50181935F01F4
:101910000E947F07E7CF843369F50E948907198306
:101920000A838F2D8F778B83EC8264E070E0CE0189
:1019300001960E946507A70170E060E0C6010E9461
:101940001E38E114F10421F0B701C6010E946507B9
:101950000E947F07C7010F900F900F900F90DF91AB
:10196000CF911F910F91FF90EF90DF90CF90BF909C
:10197000AF9008950E9489070F3F110509F030F4D8
:1019800019820A831B8263E070E0D1CF17FD0BC080
:1019900019820A8333E0169507953A95E1F7007EA0
:1019A00008600B83F0CFC80126E0969587952A95AD
:1019B000E1F7807E19830A830115104C18F48061C9
:1019C0008B83E1CF8861FCCFCF93DF931F92CDB79C
:1019D000DEB72091EF0330E0322F2227260F371F8A
:1019E00090E0982F882741E050E0BE016F5F7F4F65
:1019F000820F931F0E94590C89810F90DF91CF9124
:101A00000895CF93C82F462F61E070E00E94A70889
:101A100061E070E08C2F0E94E40C8111F9CFCF912E
:101A20000895CF93C82F80E591E00E948A0268E074
:101A300070E08C2FCF910C94010DCF93C82F80E5CF
:101A400091E00E948A0260E170E08C2FCF910C94AB
:101A5000010DCF93DF93EC01888D843020F40E9438
:101A60001D0D84E0888FDF91CF910895CF93C82F0B
:101A700080E591E00E948A0263E070E08C2FCF91B4
:101A80000C94E40CCF93DF93EC018C858430D0F47C
:101A90000E94360D843189F0882379F0883169F00D
:101AA00021E08C3159F4E881F9810084F185E02D41
:101AB000CE01099521E0892B09F420E0822FDF91E6
:101AC000CF91089580E0FBCFCF92DF92EF92FF920B
:101AD000CF93DF93EC018C85843068F40E94110D64
:101AE0000E9400046B017C018C850E94360D8111DF
:101AF00009C084E08C87DF91CF91FF90EF90DF9059
:101B0000CF90089561E070E080E090E00E94CD0306
:101B10000E940004AB01BC014C195D096E097F09EC
:101B20008D859E85B0E0A0E0481759076A077B07BE
:101B3000D8F28C850E941D0DDCCFCF93FC01C08DA7
:101B400080E591E00E948A0260E270E08C2F0E94A2
:101B5000010D62E070E08C2F0E94E40C84FD16C041
:101B600062E070E08C2F0E94E40C83FF0AC048E121
:101B700062E070E08C2F0E94A70880E090E0CF9197
:101B8000089580E591E00E948A02E3CF40E162E09F
:101B900070E08C2F0E94A70881E0F0CFCF93DF93F5
:101BA0001F92CDB7DEB741E050E0BE016F5F7F4FBF
:101BB00090E080E00E94590C89810F90DF91CF91D5
:101BC0000895CF93DF93C4E1D0E00E94CE0D882327
:101BD00061F061E070E080E090E00E94CD03219729
:101BE000A1F780E0DF91CF91089581E0FBCF1F93B3
:101BF000CF93DF931F92CDB7DEB7182F80E591E02A
:101C00000E948A02812F0E945E0827E0129FF00145
:101C10001124E259FB4F22813381377041E050E0BB
:101C2000BE016F5F7F4F820F931F0E94590C898105
:101C30000F90DF91CF911F910895FC01808D84302A
:101C400040F4218D328D232B21F00E94F70D90E07E
:101C500008958FEF9FEF0895CF93DF93FC012485C4
:101C6000243028F08FEF9FEFDF91CF910895EC01A2
:101C70000190F081E02D0084F185E02D0995892BFC
:101C800089F38C850E94F70D90E0EECFDA01E091A8
:101C9000EF03F0E0FE2FEE27E60FF71F90E0982FFE
:101CA0008827A901BD018E0F9F1F0C94590C8F929C
:101CB0009F92AF92BF92CF92DF92EF92FF921F93CB
:101CC000CF93DF93CDB7DEB72C970FB6F894DEBF76
:101CD0000FBECDBF20918A0414E0222339F16B019D
:101CE0007C0180E591E00E948A025E0127E0A20E5D
:101CF000B11C450110E063E070E0812F0E94E40C0C
:101D0000F40181934F01882349F11F5F143099F743
:101D100010E0F50181915F018D31D9F08831C9F072
:101D20008A518230B0F01F5F143099F7812F2C96C2
:101D30000FB6F894DEBF0FBECDBFDF91CF911F91DC
:101D4000FF90EF90DF90CF90BF90AF909F908F90DB
:101D5000089560E170E0812F0E94010DA12EB12C49
:101D600083EE93E00197F1F742E870E060E0812FA5
:101D70000E94A7084FEF62E070E0812F0E94A70841
:101D8000B601C114D10491F48091210190912201F6
:101D900001968115F0EC9F0708F45CC09093220136
:101DA000809321016091210170912201812F0E9475
:101DB000920886E0E5E3F1E0DE01119601900D92D4
:101DC0008A95E1F7F70183818F778C8384818D83F6
:101DD00085818E83A7014E5F5F4F24E030E06CE089
:101DE00070E0812F0E946C08B601812F0E947D084F
:101DF00026E030E0AE014F5F5F4F66E070E0812F7C
:101E00000E946C0861E070E0812F0E94010D27E0C4
:101E10002A9DC0012B9D900D11249C0122593B4FFE
:101E20007901F9011182108222E030E0AE01455FB4
:101E30005F4F68E270E0812F0E94460E8B859C8583
:101E4000982789279827F701938382831682158222
:101E500014826CCF80E090ECA1CFCF92DF92EF9212
:101E6000FF920F931F93CF93DF9300D000D000D049
:101E7000CDB7DEB78C016B017A01FC01808D843017
:101E800010F40E941D0D8BEC91E09A838983F6017A
:101E900082819381A481B5818B839C83AD83BE8332
:101EA000B701CE0101960E94570EF801808F843051
:101EB000A0F4F586E486128E118E81E026960FB688
:101EC000F894DEBF0FBECDBFDF91CF911F910F9170
:101ED000FF90EF90DF90CF90089580E0EFCFAF922A
:101EE000BF92CF92DF92EF92FF920F931F93CF9307
:101EF000DF9300D000D000D0CDB7DEB7082F6B0144
:101F000080E591E00E948A029E012F5F3F4F790198
:101F1000590110E063E070E0812F0E94E40CF501AC
:101F200081935F01882341F11F5F143099F710E01E
:101F3000F70181917F018D31D1F08831C1F08A5153
:101F40008230A8F01F5F143099F7812F26960FB6C4
:101F5000F894DEBF0FBECDBFDF91CF911F910F91DF
:101F6000FF90EF90DF90CF90BF90AF90089560E129
:101F700070E0812F0E94010DE12EF12C83EE93E0A1
:101F80000197F1F7402F70E060E0812F0E94A708D1
:101F90004FEF62E070E0812F0E94A708B601CD28C4
:101FA00089F4809121019091220101968115F0EC34
:101FB0009F0798F190932201809321016091210164
:101FC00070912201812F0E94920861E070E0812FC0
:101FD0000E94010D27E02E9DC0012F9D900D112420
:101FE0009C0122593B4F7901F9011182108222E0B4
:101FF00030E0AE014B5F5F4F68E270E0812F0E94DE
:10200000460E8D819E81982789279827F701938313
:10201000828316821582148298CF80E090ECCACF1A
:10202000CF92DF92EF92FF921F93CF93DF93EC0159
:102030007B016A018C85843048F40E94360D882328
:1020400019F08C850E94110D84E08C87F701828144
:102050009381A481B5810097A105B10551F490E069
:1020600080E0DF91CF911F91FF90EF90DF90CF90B4
:1020700008958F3F9F4FAF4FBF4F89F380918A04E0
:10208000811103C084E08C87EACF70E060E081E2D8
:102090000E946F0F182F8C87843008F780E591E03D
:1020A0000E948A02A7014E5F5F4F24E030E06CE09F
:1020B00070E0812F0E946C08B601812F0E947D087C
:1020C00064E070E0812F0E94010D0E9400046B010A
:1020D0007C018C850E94360D873109F18C31F9F035
:1020E000882309F4BCCF0E940004AB01BC014C1949
:1020F0005D096E097F098D859E85B0E0A0E084179B
:102100009507A607B70738F061E070E080E090E03F
:102110000E94CD03DECF8C850E941D0DB3CF81E0E0
:1021200090E09FCF0F931F93CF93DF93EC018B0130
:10213000888D843010F40E941D0D80918A048111D5
:1021400007C094E0988FDF91CF911F910F91089570
:10215000B80182E00E946F0F888F843030F41D87B1
:102160000C871A8E198E81E0EECF80E0ECCF7F9243
:102170008F929F92AF92BF92CF92DF92EF92FF9297
:102180000F931F93CF93DF9300D0CDB7DEB7782E98
:102190008B014A01590122E030E0AE014F5F5F4FF1
:1021A00064E270E00E94460EE980FA80FE24EF248B
:1021B000FE24E00EF11E9701377040918A04072D2E
:1021C00010E0433309F042C0085F1F4F102F002773
:1021D000110F110F110FC901800F911F4733C9F162
:1021E000A9014A0D5B1D4130584098F160E078E04C
:1021F0006B01C21AD30AA601B4010E949B07A50174
:102200004C195D09B4016C0D7D1DC8010E949B072E
:10221000EA0CFB1CF982EA8222E030E0AE014F5F5B
:102220005F4F64E270E0872D0E946C080F900F9062
:10223000DF91CF911F910F91FF90EF90DF90CF90A2
:10224000BF90AF909F908F907F900895005F1F4F39
:10225000BDCFA501B401DACFEF92FF921F93CF93C8
:10226000DF9300D0CDB7DEB7182F22E030E0AE010B
:102270004F5F5F4F60E270E00E94460EE980FA8097
:10228000FE24EF24FE2422E030E0AE014F5F5F4FDA
:1022900060E270E0812F0E94460E89819A81982722
:1022A00089279827E816F90689F487E0189FF00136
:1022B0001124E259FB4FF582E482C7010F900F9081
:1022C000DF91CF911F91FF90EF9008957C01DBCFBC
:1022D0001F93CF93DF93182F80E591E00E948A022D
:1022E000812F0E942C11EC0163E070E0812F0E948D
:1022F000E40C873121F08C3111F0D0E0C0E0CE0148
:10230000DF91CF911F910895CF93DF93EC018C85DE
:10231000843060F40E94360D873111F08C3131F435
:102320008C850E9468118115984088F3DF91CF91C8
:102330000895FC018485843010F40C94681190E0B9
:1023400080E008959F92AF92BF92CF92DF92EF927A
:10235000FF920F931F93CF93DF938C015B01942E19
:10236000E52EFC01C688D788F08C80E591E00E94BC
:102370008A028F2D0E942C11C92DDE2D8C179D07EE
:1023800008F4EC019E01A501B6018F2D0E94B71043
:10239000F801868997898C0F9D1F978B868BCE01BC
:1023A000DF91CF911F910F91FF90EF90DF90CF9031
:1023B000BF90AF909F9008958F929F92AF92BF92DF
:1023C000CF92DF92EF92FF920F931F93CF936C0106
:1023D0005B018A01FC01C485C430F0F57A0141300B
:1023E000584018F0E12C88E0F82E80E591E00E943A
:1023F0008A028C2F0E942C114C0163E070E08C2F1C
:102400000E94E40C873111F08C3149F58E149F0441
:1024100060F380E591E00E948A029701A50170E0D7
:1024200060E08C2F0E94B71060E270E08C2F0E9459
:10243000010D62E070E08C2F0E94E40C84FD17C057
:1024400063E070E08C2F0E94E40C81110BC081E0EE
:1024500090E0F6019383828310E000E010C0F12C3D
:10246000E12CD7CF80E591E00E948A02E2CF40E1E3
:1024700062E070E08C2F0E94A708EF2841F3C801AA
:10248000CF911F910F91FF90EF90DF90CF90BF9071
:10249000AF909F908F900895FF920F931F93CF93CB
:1024A000DF9300D0CDB7DEB7F82E22E030E0AE01EA
:1024B0004F5F5F4F66E270E00E94460E09811A810D
:1024C00010270127102722E030E0AE014F5F5F4F59
:1024D00066E270E08F2D0E94460E89819A819827CE
:1024E000892798270817190749F4C8010F900F90FA
:1024F000DF91CF911F910F91FF9008958C01E3CF51
:102500001F93CF93DF93182F87E0189FE0011124CA
:10251000C259DB4F88819981009761F480E591E091
:102520000E948A02812F0E944C122E81821B9109E7
:1025300099838883DF91CF911F910895FC01848551
:10254000843010F40C94801290E080E008954F9253
:102550005F927F928F929F92AF92BF92CF92DF92C3
:10256000EF92FF920F931F93CF93DF9300D0CDB7DD
:10257000DEB7782E6B014A01A82EB12C27E0829F8E
:10258000C0011124FC01E259FB4F7F010081118140
:1025900080E591E00E948A020815190554F4872D00
:1025A0000E944C12F70126818C01021B1109118334
:1025B00000830115110529F563E070E0872D0E9465
:1025C000E40C843159F0882349F001E010E08C31AB
:1025D00011F410E000E0119501951109C8010F9068
:1025E0000F90DF91CF911F910F91FF90EF90DF90AF
:1025F000CF90BF90AF909F908F907F905F904F90C3
:102600000895801691060CF4840187E08A9DF001FC
:102610008B9DF00D1124E259FB4FE280F380C11431
:10262000D10451F12701F7E05F22872D0E945E0857
:10263000840D951D20918A04273309F453C0980115
:10264000240D351D2130384008F44CC020E038E01E
:10265000490184189508A401B6010E94590C26016D
:10266000480C591C6801C818D908872D0E945E08BB
:10267000A601B2010E94590CE00EF11E87E08A9D6E
:10268000F0018B9DF00D1124E259FB4FF382E282A1
:1026900020813181201B310B318320838681800F83
:1026A000912F911D8A3F910510F4232BF1F487E0BF
:1026B0008A9DF0018B9DF00D1124E259FB4F16828B
:1026C000F982EA8222E030E0AE014F5F5F4F68E2BC
:1026D00070E0872D0E946C0860E470E0872D0E94F6
:1026E000010D7CCFA801B601C5CF868377CFCF93EC
:1026F000DF93FC01218D328D2115310529F48FEFF7
:102700009FEFDF91CF910895EC01808D4217530721
:1027100008F0A9010E94A7121816190684F7298D3E
:102720003A8D281B390B3A8F298FEBCF0F931F93CC
:10273000CF93DF931F92CDB7DEB7FC01218D328D91
:10274000232B41F48FEF9FEF0F90DF91CF911F91DB
:102750000F9108958C0141E050E0BE016F5F7F4F03
:10276000FC01808D0E94A712181619065CF7F8016B
:10277000818D928D0197928F818F898190E0E4CF36
:10278000CF93DF931F92CDB7DEB741E050E0BE019B
:102790006F5F7F4FFC0184850E94A71218161906EF
:1027A00034F4898190E00F90DF91CF9108958FEFFD
:1027B0009FEFF9CFFC018485843010F40C94A712AC
:1027C00090E080E008950F931F93CF93DF9300D0A4
:1027D000CDB7DEB7FC0124852430E0F48C0180E520
:1027E00091E00E948A0222E030E0AE014F5F5F4F2D
:1027F00060E170E0F80184850E94460E89819A812B
:102800009827892798270F900F90DF91CF911F91DC
:102810000F91089590E080E0F6CF0F931F93CF9330
:10282000DF9300D0CDB7DEB7FC0124852430E0F47F
:102830008C0180E591E00E948A0222E030E0AE0146
:102840004F5F5F4F64E070E0F80184850E94460EA0
:1028500089819A819827892798270F900F90DF9177
:10286000CF911F910F91089590E080E0F6CFDC01A9
:102870008BEC91E08D939D9384E0FB0101900D9290
:102880008A95E1F70895EF92FF920F931F93CF93EC
:10289000DF9300D000D0CDB7DEB78C017B01FB0108
:1028A00084858430A8F08BEC91E0F80191838083DB
:1028B0001282138214821582C8010F900F900F901C
:1028C0000F90DF91CF911F910F91FF90EF9008959E
:1028D00080E591E00E948A0224E030E0AE014F5F83
:1028E0005F4F6CE070E0F70184850E94460EBE01E8
:1028F0006F5F7F4FC8010E943714DECF0F931F9385
:10290000CF93DF93CDB7DEB728970FB6F894DEBF2D
:102910000FBECDBF8C01D80159964D915C915A974D
:102920004115510551F0ED91FC91048CF58DE02D90
:1029300070E060E0C8010995EECFF801808D0E943B
:102940008012892BB1F148E050E0BE016F5F7F4FEC
:10295000D80158968C910E94A71218161906F4F403
:10296000D801509684E0FE01319601900D928A952F
:10297000E1F78D8190E0982F88272E81820F911D9D
:10298000F801958B848B8F81282F30E0322F2227FE
:102990008885820F932F911D928F818F28960FB675
:1029A000F894DEBF0FBECDBFDF91CF911F910F9185
:1029B000089590E080E0F2CF4F925F926F927F9205
:1029C0008F929F92AF92BF92CF92DF92EF92FF923F
:1029D0000F931F93CF93DF93CDB7DEB763970FB6F7
:1029E000F894DEBF0FBECDBF7C016B013A01FB0145
:1029F00020E090E080E06AE03191332309F461C087
:102A000040ED430F4A3008F04DC0689FA001699F18
:102A1000500D1124CA01C097830F911D37FD9A955F
:102A20008F3F910549F340F3F7014281538164815F
:102A300075818091600590916105A0916205B091CA
:102A40006305481759076A077B0709F40DC2870118
:102A5000085F1F4F0E9400046F7077277C5FC801DA
:102A60000E949210813009F004C28BEC91E09A83AD
:102A70008983F70182819381A481B5818B839C83B3
:102A8000AD83BE8345E350E0BE016F5F7F4FC80159
:102A90000E94FC08892BA9F5D12CC12CC8010E94E9
:102AA000290D17C03E3209F0BFCF233009F4BCCF47
:102AB000D301A20FB11D12968C932F5F90E080E09E
:102AC0009BCF233009F0B0CFF3018583CC24C3948E
:102AD000D12CC60163960FB6F894DEBF0FBECDBFF2
:102AE000DF91CF911F910F91FF90EF90DF90CF90EA
:102AF000BF90AF909F908F907F906F905F904F901E
:102B000008950E940004F7017783668342E050E055
:102B1000B7016A5F7F4FC8010E94A21181E090E077
:102B20009A83898342E050E0BE016F5F7F4FC80106
:102B30000E94A21180E091E09A83898342E050E0F4
:102B4000BE016F5F7F4FC8010E94A2111A821982D5
:102B500042E050E0BE016F5F7F4FC8010E94A211AA
:102B600042E050E0BE016F5F7F4FC8010E94A2119A
:102B700042E050E0BE016F5F7F4FC8010E94A2118A
:102B80005601F6018081882301F16501F6018191EA
:102B90002F01882311F08E32B1F446018A189B0868
:102BA0001814190474F48D8641E050E0BE01635F8F
:102BB0007F4FC8010E94A211A401B501C8010E9463
:102BC000A2115201DECF6201E1CF1D8641E050E04B
:102BD000BE01635F7F4FC8010E94A211C12CDD249A
:102BE000D394DA82C98242E050E0BE016F5F7F4F2A
:102BF000C8010E94A211DA82C98242E050E0BE01FF
:102C00006F5F7F4FC8010E94A211C8010E949D0DF5
:102C1000892B09F441CFF3E0AF2EB12C230122E040
:102C2000420E511CD4C0F7014281538164817581E9
:102C3000808D918DA28DB38D481759076A077B0748
:102C400009F008C1848D958DC59709F003C181A154
:102C500092A15DEFC52EDD24DA940C970CF4ADC083
:102C60004CE050E0BE016F5F7F4FC8010E947713B8
:102C70008B819C819827892798279A8B898BF701CC
:102C80004681578129813A814217530709F0E7C0ED
:102C900097FFE5C08F7092703BEFC32EDD24DA946E
:102CA000892B09F08AC06F80788476246724762483
:102CB0002AEFC22EDD24DA946114710409F47DC078
:102CC000D12CC12C8D819E81982789279827C816E1
:102CD000D906F8F441E050E0BE01635F7F4FC801C0
:102CE0000E9477134D85442331F050E070E060E09E
:102CF000C8010E9477138D858111ECCF44E050E02C
:102D000070E060E0C8010E947713FFEFCF1ADF0A7E
:102D1000D9CF912C812C41E050E0BE016D5E7F4FF8
:102D2000C8010E9477134B89842F807C09F06CC006
:102D3000442331F050E070E060E0C8010E94771356
:102D40008B898111E8CF42E050E0BE01615F7F4F87
:102D5000C8010E94771342E050E0BE01635F7F4FDD
:102D6000C8010E94771344E050E070E060E0C801C1
:102D70000E94771342E050E0BE016F5E7F4FC801B2
:102D80000E9477138F85988949895A8981159140C6
:102D900009F043C0CD84DE84DC24CD24DC2481E032
:102DA000C816D104D1F54115544009F04AC044E099
:102DB00050E0B201C8010E94771321E0A21AB108C5
:102DC00009F46CCEFFEFCF16DF0609F067CE0E9444
:102DD00000043B014C01C8010E947E14181619061C
:102DE0000CF421CF0E94000466197709880999091B
:102DF000693873418105910548F562E370E080E030
:102E000090E00E94CD03E7CF41E050E070E060E049
:102E1000C8010E9477131B8A93CF54274527542754
:102E200070E060E0C8010E947713FFEF8F1A9F0ADD
:102E30006814790409F06FCF96EFC92EDD24DA9477
:102E4000BCCFE7EFCE2EDD24DA94B7CFCC24CA94E2
:102E5000DC2CB3CF6EEFC62EDD24DA94AECF4CEF70
:102E6000C42EDD24DA94A9CF8EEFC82EDD24DA94A7
:102E700030CED12CC12C2DCECF92DF92EF92FF928B
:102E80000F931F93CF93DF93CDB7DEB7AF970FB6F6
:102E9000F894DEBF0FBECDBF7C016A010BEC11E0E0
:102EA0001A8309831C861B8688EE93E0A0E0B0E0BD
:102EB0008D879E87AF87B88B8FE391E09A8789874C
:102EC000188F0F8B198E1A8E1B8E1C8E84E089A38F
:102ED0001BA70AA71CA61DA61EA61FA68091540507
:102EE00090915505A0915605B09157058EA39FA3CB
:102EF000A8A7B9A78B839C83AD83BE8318861F8246
:102F0000AE01465D5F4FCE0101960E94DC14813018
:102F10009105B1F4D701ED91FC910488F589E02D7C
:102F20001DA30CA38CA59DA5AEA5BFA58EA39FA395
:102F3000A8A7B9A7A601BE016C5D7F4FC70109957F
:102F4000AF960FB6F894DEBF0FBECDBFDF91CF9125
:102F50001F910F91FF90EF90DF90CF900895CF9247
:102F6000DF92EF92FF920F931F93CF93DF93CDB732
:102F7000DEB7AF970FB6F894DEBF0FBECDBF8C01A2
:102F80006B017A018BEC91E09A8389831B821C820E
:102F90001D821E821C861B8648EE53E060E070E0B6
:102FA0004D875E876F87788B2FE331E03A872987DB
:102FB000988F8F8B198E1A8E1B8E1C8E24E029A35E
:102FC0009BA78AA71CA61DA61EA61FA6D8011C96F5
:102FD0008C91843060F40E94360D882321F0F80132
:102FE00084850E94110D84E0D8011C968C938091F9
:102FF000540590915505A0915605B09157058EA3A3
:103000009FA3A8A7B9A78B839C83AD83BE83188693
:103010001F82AE01465D5F4FB601CE0101960E9450
:10302000DC140097C1F0D801ED91FC910684F7857E
:10303000E02D8BEC91E09DA38CA38CA59DA5AEA566
:10304000BFA58EA39FA3A8A7B9A7A701BE016C5DCA
:103050007F4FC8010995AF960FB6F894DEBF0FBE3B
:10306000CDBFDF91CF911F910F91FF90EF90DF9037
:10307000CF9008957F928F929F92AF92BF92CF92FE
:10308000DF92EF92FF920F931F93CF93DF93CDB711
:10309000DEB7A6970FB6F894DEBF0FBECDBF8C018A
:1030A000762E942E852E20E2A22ECE0101967C0152
:1030B000DC01EA2D1D92EA95E9F76801F3E4CF0EF1
:1030C000D11C8BEC91E09AA389A38FEF8BA38CA3E7
:1030D0008DA38EA343E450E0BE016F5D7F4FC60118
:1030E0000E94FC08019609F4BFC081E089838A83AD
:1030F00086E0B82EBB821C82D80114966D917D911A
:103100008D919C9117970E94D3366D837E838F8318
:10311000988789869A8680E890E09C878B874CE127
:1031200050E0B701C6010E94A211FE0137968AE164
:10313000DF011D928A95E9F74801B8E08B0E911CDA
:10314000F401D70101900D92BA94E1F740E150E00B
:10315000B701C6010E94A211F7011192AA94E9F7E2
:1031600096E0A92EB12C40E250E0B701C6010E94C2
:10317000A211F1E0AF1AB108B1F783E6898392E8B2
:103180009A8393E59B838C8385E38D8381E08E8393
:103190007F829DE3988797E099878A8786E0F4018C
:1031A000DE011B9601900D928A95E1F78CE0898BE8
:1031B0008A8B6EE172E0CE0143960E942E38D801D0
:1031C0001B966C91CE0149960E948D02F801648590
:1031D000CE014B960E948D02D8011D966C91CE01B6
:1031E0004D960E948D024EE150E0B701C6010E944B
:1031F000A211B3E07B121EC082E3898384E08A833C
:10320000F80196859B8397859C8390899D839189FE
:103210009E8396E39F838887828D8987838D8A87A3
:10322000848D8B87858D8C874CE050E0B701C6017B
:103230000E94A21187E3898386E08A8391E09B83C1
:1032400093E09C838D838FE08E838AE38F838BE36F
:1032500088878FEF898749E050E0B701C6010E9457
:10326000A211C6010E949D0DA6960FB6F894DEBF6E
:103270000FBECDBFDF91CF911F910F91FF90EF90C7
:10328000DF90CF90BF90AF909F908F907F900895E8
:103290000F931F93CF93DF93EC01FB01019000206C
:1032A000E9F78F01061B170B8A819B81A801480F44
:1032B000591F2C813D812417350768F028813981F9
:1032C000A801820F931F0E9415384A815B81400F2D
:1032D000511F5B834A83DF91CF911F910F91089516
:1032E0006115710599F4DC01ED91FC91119712962D
:1032F0002D913C911397A9014F5F5F4F13965C93FB
:103300004E931297E20FF31F108208950C94481900
:103310000F931F93CF93DF93EC01888199810097DE
:1033200059F02A813B812617370730F081E0DF9181
:10333000CF911F910F9108958B016F5F7F4F0E9476
:103340004B37009759F0998388831B830A832C811C
:103350003D81232B59F7FC011082E8CF80E0E7CFB5
:1033600085ED8093BC008091C5039091C603A09128
:10337000C703B091C8030796A11DB11D23E0B69500
:10338000A795979587952A95D1F72091BC0024FDA4
:1033900003C01092C30308954091C5035091C60322
:1033A0006091C7037091C803452B462B472B69F3E7
:1033B0000097A105B10541F02AE22A95F1F700C076
:1033C0000197A109B109E1CF8091C4030C94D805FC
:1033D0003F924F925F926F927F928F929F92AF92A5
:1033E000BF92CF92DF92EF92FF920F931F93CF93F2
:1033F000DF93CDB7DEB7EA970FB6F894DEBF0FBE06
:10340000CDBF7C012A013B0169010E9400044B01F0
:103410005C0187010D5B1F4FC8010E947E141816C6
:1034200019069CF00E940004681979098A099B0911
:10343000461657066806790608F466C162E370E02E
:1034400080E090E00E94CD03E7CF42E250E0BE0171
:103450006F5F7F4FC8010E94771389818230D1F05E
:10346000312C832DEA960FB6F894DEBF0FBECDBF88
:10347000DF91CF911F910F91FF90EF90DF90CF9050
:10348000BF90AF909F908F907F906F905F904F9084
:103490003F900895F801848995898334910501F757
:1034A0006D817E818F8198850E94D3364B015C01AE
:1034B000F60180829182A282B38246E050E0B70199
:1034C000685F7F4FCE014D960E940838892B41F6E8
:1034D000F70180819181A281B38188169906AA069D
:1034E000BB0608F4BDCF84819581A681B78188157C
:1034F0009905AA05BB0508F4B3CF89899A89AB89D8
:10350000BC8986879787A08BB18B4EEC50E070E02A
:1035100060E0C8010E947713312CC701829698ABF6
:103520008FA7F701B696FAABE9AB08969CAB8BABCD
:1035300067019AE1C90ED11CBD96FEABEDABC70188
:10354000429698AF8FABFD97FAAFE9AF4701FEE126
:103550008F0E911CF801818D928D181619060CF0B2
:1035600080CFC8010E9496138333910509F4B2C03D
:1035700014F58130910509F464C044F4892B51F3AA
:10358000C8010E949613AC01552775C08330910580
:1035900009F462C00697A1F7C8010E949613B82EDD
:1035A00044E050E0B401C8010E947713EB2DE450D1
:1035B000FF0BAF0160C08A33910509F45FC084F549
:1035C00085339105B1F1C697D9F6C8010E949613CB
:1035D0005C01B601CE0189960E9437148BA59CA58B
:1035E000ADA5BEA5892B8A2B8B2BB1F0EDA9FEA929
:1035F0004080518062807380B601CE0183960E9424
:1036000037148DA19EA1AFA1B8A5A50148165906F2
:103610006A067B0609F0B8CF44E050E0B60118C056
:103620008B33910509F440C08F3F910509F492CF87
:10363000A7CFC8010E949613C8010E949613382E86
:1036400089CFC8010E94961344E050E06FA978AD7D
:10365000C8010E9477137ECFC8010E949613B82E2E
:1036600044E050E069AD7AADC8010E9477138B2D1C
:103670008450990BAC0170E060E0EACFC8010E9471
:10368000961344E050E069A97AA9C8010E94771313
:10369000F70166A177A180A591A50E94D33666A304
:1036A00077A380A791A756CFC8010E94961344E044
:1036B00050E06BA97CA9C8010E947713F70162A5AD
:1036C00073A584A595A50E94D33662A773A784A786
:1036D00095A740CFC8010E94961344E050E06FA523
:1036E00078A9C8010E947713F70162A173A184A190
:1036F00095A10E94D33662A373A384A395A366A762
:1037000077A780AB91AB26CF33243A94AACE0F9300
:103710001F93CF93DF93CDB7DEB728970FB6F894FA
:10372000DEBF0FBECDBF8C01CB014AE0BE016F5F93
:103730007F4F0E940A32BE016F5F7F4FC8010E9417
:10374000481928960FB6F894DEBF0FBECDBFDF91A3
:10375000CF911F910F9108953F924F925F926F9278
:103760007F928F929F92AF92BF92CF92DF92EF9211
:10377000FF920F931F93CF93DF93CDB7DEB7A1973F
:103780000FB6F894DEBF0FBECDBF5C010DB71EB7FC
:1037900019A308A360E070E0CB010E94CD03D5011E
:1037A00091968D919C919297912C029709F4C6C3A2
:1037B00090968C9190978F5F90968C9390975E9651
:1037C0002D913C91232B19F099249394B0C383300D
:1037D000D8F7F501828593850E94A409882309F40E
:1037E00086C38E010F5F1F4F3801D5011A96ED91E8
:1037F000FC9180819181DC01ED91FC910084F18547
:10380000E02D0995181619060CF071C3D5011A960A
:10381000ED91FC9145E050E0BE01695E7F4F8081F3
:1038200091810E940F04009701F3059709F074C07D
:10383000888D998D982789279827998F888FEA8C6A
:10384000FB8CFE24EF24FE24FB8EEA8E892B09F4E8
:1038500063C08F89811174C00E940004F501608BE0
:10386000718B828B938B21A132A18A8D9B8D232B0F
:1038700009F062C0288D398D2130310509F05CC016
:1038800089309105E1F1883C910519F0049709F020
:1038900048C00E94120B8BE093E00E945305D501B3
:1038A00050964D915D916D917C91539758968D9165
:1038B0009D910D90BC91A02D481B590B6A0B7B0B61
:1038C0002AE08BE894E00E946B0A86E093E00E9475
:1038D0005B0AF50180899189A289B389808F918FD4
:1038E000A28FB38F01E010E012A301A3C5010E94D3
:1038F000592660E070E0CB010E94CD0376CF0E9494
:10390000120B87E394E00E945B0A83E090E0D5010C
:1039100092969C938E939197D5011A968D919C9136
:1039200003C30E94120B80E294E00E9453058A8D2B
:103930009B8D0E94B70AF0CF059709F056CFECCFC8
:10394000B1E0EB16FB0690F00E94120B8FE094E0C2
:103950000E9453058A8D9B8D0E94B70AF50112A221
:1039600011A2828593850E94B7093FCF8DB69EB67E
:10397000C70101960DB71EB7081B190B0FB6F894B7
:103980001EBF0FBE0DBF0F5F1F4FD5011A96ED91E1
:10399000FC91A701B801808191810E940F048E15CE
:1039A0009F0509F064C0EA8DFB8DE00FF11F1082C6
:1039B0000E940004F501608B718B828B938B8F8941
:1039C000843109F4C7C0E8F48F3009F4C3C08131F1
:1039D00009F461C2863009F082C2488D598DD12C1C
:1039E000C12CF12CE12C08EC10E030E020E060E08C
:1039F000C5010E94A7200FB6F8949EBE0FBE8DBED3
:103A0000F4CE8932F1F0873309F45AC28D3109F0CE
:103A100066C281A192A1892B01F70E94120B89E055
:103A200094E00E945B0A01E010E0F50112A301A3FB
:103A3000C5010E94592660E070E0CB010E94CD03D1
:103A4000CCCF86859785892B39F480E490E00E945D
:103A5000F32FF50197878687EA8CFB8CE00EF11E29
:103A60001A830983FC82EB820E151F0530F00FB616
:103A7000F8949EBE0FBE8DBE4FCF40E450E0B8011B
:103A8000D5011E968D919C910E943538D5011E96C8
:103A9000ED91FC9117AEC3010E943726FC01808195
:103AA000918100E510E08E159F0570F489819A815F
:103AB000009709F44BC02B813C818217930708F0D3
:103AC00045C00E94DA318B010E94120B89EF93E00E
:103AD0000E945305D5011E966D917C918BE894E070
:103AE0000E94240B6AE38BE894E00E945F04C80103
:103AF0000E94B70AF501828593850E94B709D50116
:103B00001A96ED91FC911B971E968D919C911F9793
:103B1000918780871387028792961C921E929197B5
:103B20000E940004DC01CB0188589341A109B1092E
:103B3000F501848B958BA68BB78B808B918BA28B99
:103B4000B38B808F918FA28FB38F55CF60E070E0E1
:103B5000CB01B9CF888D998DD5015F969C938E93BB
:103B60005E974A8C5B8C6801C40CD51C1D8F0C8F32
:103B7000DF8ECE8E0C151D0508F013C1F801E08014
:103B8000F180CE014C960E943726DC018D919C91EC
:103B90008C159D0508F005C18C8D9D8DFC01208143
:103BA000213459F401960E94BC314EE0342E380E77
:103BB000069744F033243A9405C0CE014C960E94F7
:103BC0004A26382EF6E7EF16F2E7FF0609F406C19B
:103BD00038F531E6E31632E7F30609F4E6C044E6C9
:103BE000E41642E7F40609F478C050E7E5165DE60E
:103BF000F50609F039C18C8D9D8D8C159D0508F059
:103C0000D0C0FC0120812134A9F501960E94BC316D
:103C10003EE0F32EF80E069794F1FF24FA942FC09D
:103C200084E6E81687E7F80609F4A2C096E7E916E5
:103C300097E7F90609F4EAC0A1E6EA16A7E7FA064B
:103C400009F012C1CE014C960E943726DC018D91FD
:103C50009C918C159D0508F0A4C061E0832D0E9405
:103C6000FA02CE014C960E944A26BC01832D0E9486
:103C7000360397C0CE014C960E944A26F82ECE01FC
:103C80004C960E9437260C8D1D8D65E272E0C801AE
:103C90000E94253860E0892B79F068E272E0C80163
:103CA0000E942538892B39F06CE272E0C8010E942D
:103CB0002538892B49F461E08F2D0E94FA02CE014C
:103CC0004C960E94372697CF60E372E0C8010E94AD
:103CD0002538892BA1F762E0EFCF7A8A698A1C8A9E
:103CE0001B8A00E110E01E8B0D8B63E372E0CE01B6
:103CF00041960E944819032D10E0B801CE0141966B
:103D00000E94871BF801E55BFC4F8491F801E95C98
:103D1000FC4FF4900D5D1C4FF801049160E070E0E1
:103D2000002389F081110E94A302E02FF0E0EE0F42
:103D3000FF1FE75EFC4FA591B491EC91FE2261E07C
:103D400070E009F460E0CE0141960E94871B0B8968
:103D50001C890150110929893A89D12CC12CF12CD7
:103D6000E12C50E040E064E1C5010E94A72019C0A9
:103D7000CE014C960E943726DC018D919C918C15CA
:103D80009D0578F461E0832D0E94FA02CE014C96E5
:103D90000E944A2661E0892B09F460E0832D0E948D
:103DA000CC02F501178E168E26CE7A8A698A1C8A75
:103DB0001B8AE0E1F0E0FE8BED8B66E372E0CE0162
:103DC00041960E944819632D70E0CE0141960E94F1
:103DD000871B832D0E949303BC01B5CFE32DF0E038
:103DE000FA83E983BFE1B315E0F2EE0FFF1FE15A5A
:103DF000FC4F259134912115310599F2E2E02938E3
:103E00003E0779F2C301F9010995CBCFCE014C965B
:103E10000E9437268C8D9D8D9C01201B310B421AF0
:103E2000530A9A8389835C824B825E824D82E32DA2
:103E3000F0E0FA8BE98B0FE1031508F4B2CFEE0F37
:103E4000FF1FE156FC4F259134912115310509F4EE
:103E5000A8CF12E02838310709F4A3CFB301CE016F
:103E60004196F90109959DCF0E94120B8FED93E0C9
:103E70000E945305C8010E942426D5015E964D91EB
:103E80005C91D12CC12CF12CE12C02E010E030E04F
:103E900020E060E069CF8A8D9B8D800F911F1A838F
:103EA00009839C838B830817190708F0A4CDC301ED
:103EB0000E943726D5015F961C921E925E979BCD7D
:103EC0008A8D9B8D892B09F496CD0E94120B80EF71
:103ED00093E00E945305C8010E9424268CCDF50171
:103EE00012A211A2828593850E94B70984CD0E94F7
:103EF00000042B013C01F501828593850E94A409F1
:103F0000D50191962D913C9192972130310509F080
:103F100094C0F501811132C0408E518E628E738E35
:103F200012A211A2828593850E94B709912CD50116
:103F300090968C919097815090968C93892DE8A1C2
:103F4000F9A10FB6F894FEBF0FBEEDBFA1960FB654
:103F5000F894DEBF0FBECDBFDF91CF911F910F91BF
:103F6000FF90EF90DF90CF90BF90AF909F908F9099
:103F70007F906F905F904F903F90089580899189D6
:103F8000A289B38993018201081B190B2A0B3B0BF1
:103F9000D901C801893116EF9107A105B10560F07B
:103FA0000E94120B88E594E00E945B0AD50192966C
:103FB0001C921E929197B1CC893C9F4AA105B105F4
:103FC00098F4F50184899589A689B78993018201BE
:103FD000081B190B2A0B3B0BD901C801893C9F4ACE
:103FE000A105B10508F4F0CBF501808D918DA28D6E
:103FF000B38D93018201081B190B2A0B3B0BD901CE
:10400000C80181379741A105B10508F4DDCBD12C5A
:10401000C12CF12CE12C10E000E030E020E050E079
:1040200040E066E0C5010E94A720D50158964D9258
:104030005D926D927C925B97C7CB232B09F0C4CB2A
:10404000F501408D518D628D738D93018201041BAA
:10405000150B260B370BB901A8018823B1F04137A6
:1040600057416105710508F4AFCB0E94120B8AE439
:1040700094E00E945B0AD5011A968D919C910E9452
:10408000B709F50112A211A251CF49385341610578
:10409000710508F499CB1A968D919C910E94B709ED
:1040A000F50102851385D8011A966D917C91C8019E
:1040B0000E942C0BF801848781110DC082859385A5
:1040C0008035910599F460E97FE1C8010E942C0BCD
:1040D000D8011C968C93D8011C969C90911011C00D
:1040E000F501408E518E628E738E21CF80399F41B3
:1040F00091F760E570E0C8010E942C0BF8018487FD
:10410000EACF81E090E0D5015D969C938E935C9719
:104110001C962D913C91F90101900020E9F731970F
:104120008F01021B130BD12CC12CF12CE12C41E08F
:1041300050E06DE1C5010E94A720F50184899589B1
:10414000A689B789808F918FA28FB38FF0CE2F92DF
:104150003F924F925F926F927F928F929F92AF9217
:10416000BF92CF92DF92EF92FF920F931F93CF9364
:10417000DF93CDB7DEB7C854D1090FB6F894DEBFD0
:104180000FBECDBF4C0168AF5AAF49AF27963FAFC6
:104190002EAF279721961FAF0EAF21972996FFAE1E
:1041A000EEAE29972396DFAECEAE2397DC011A96AA
:1041B0008D919C910E94A409882309F4BBC1B8ADDC
:1041C000BB2351F0B63041F0BD3131F0F40181A193
:1041D00092A1019709F0AEC188AD8F508630A0F54D
:1041E000D40154964D915D916D917C915797509665
:1041F000CD90DD90ED90FC905397C416D506E60661
:10420000F70610F46A017B01B2E4CB0ED11CE11C6D
:10421000F11C0E940004A7019601261B370B480BD6
:10422000590BDA01C901B7FDAAC0C4010E94AC1B39
:104230000E940004A7019601261B370B480B590B5F
:10424000DA01C901B7FFF1CFF401808191810197B3
:1042500009F0B7C082E090E09183808322813381AE
:10426000448155816681778180859185A0E0FE013A
:104270007A960E94393709F477C1FBABEAAB1DAAE5
:104280001CAA88E190E09FAB8EAB63E272E0CE01A6
:10429000C2960E944819D40112964C901297139618
:1042A0005C90139714966C90149715967C901597C4
:1042B0001696BC91BBAFF401F781FCAFD401189600
:1042C0002C90189719963C90198E9201A3016BAD12
:1042D0007F2FC101A0E00E94393709F459C0FE01C7
:1042E00079962596FFAFEEAF259727E130E03EAFF8
:1042F0002DAF8AE0A82EB12CC12CD12CE12CF12CB1
:1043000000E010E09201A3016BAD7CADC1010E9401
:10431000DA36F901E55CFD4F80812596AEADBFAD83
:1043200025978E932596BFAFAEAF2597EDADFEAD29
:104330003197FEAFEDAF9AE0A92EB12CC12CD12C54
:10434000E12CF12C00E010E09201A3016BAD7CADFB
:10435000C1010E94DC3629013A016BAF7CAF1C0120
:10436000A0E00E94393721F04DAD5EAD452B09F636
:104370006DAD7EAD6C0F7D1F6E5F7F4F0EC0D401A3
:1043800090968C91811160CFC4010E94AC1B5CCFD0
:1043900080E3888FBE01685E7F4FCE01C2960E9487
:1043A00070190CA91DA9015011092AA93BA9D12CEA
:1043B000C12CF12CE12C50E040E065E1C4010E94E9
:1043C000A72029AD3AAD232BB9F4D4015E960D9008
:1043D000BC91A02DBAAFA9AFAB2B71F4F401848DC1
:1043E000958D019609F4D5C0958F848FF401048CC6
:1043F000F58DE02DFAAFE9AF27962EAD3FAD2797AB
:1044000021960EAD1FAD21970B5F1F4F232B11F48B
:1044100005E010E029964EAD5FAD299790E080E071
:10442000452B21F023968EAD9FAD2397080F191FC2
:1044300058AD598389AD9AAD9827892798279B83D2
:104440008A8321968EAD9FAD21972396AEADBFADE9
:1044500023978A0F9B1F9827892798279D838C83F2
:10446000D4011A96ED91FC9180819181DC01ED914E
:10447000FC910280F381E02D45E050E0BE016F5FCA
:104480007F4F09957C0160E070E0CB010E94CD0375
:10449000B8ADBB2309F444C02196EEADFFAD219722
:1044A000EF2BE1F0D4011A96ED91FC91808191817E
:1044B000DC01ED91FC910280F381E02D21964EAD5F
:1044C0005FAD219727966EAD7FAD27970995E80ED2
:1044D000F91E60E070E0CB010E94CD032396EEADA3
:1044E000FFAD2397EF2BE1F0D4011A96ED91FC91EB
:1044F00080819181DC01ED91FC910280F381E02DBE
:1045000023964EAD5FAD239729966EAD7FAD29976B
:104510000995E80EF91E60E070E0CB010E94CD0322
:10452000E016F106D9F1F40112A211A28285938559
:104530000E94B709C85BDF4F0FB6F894DEBF0FBE0D
:10454000CDBFDF91CF911F910F91FF90EF90DF9042
:10455000CF90BF90AF909F908F907F906F905F9023
:104560004F903F902F900895FA83E9831C821B821D
:1045700084E090E09E838D8369E372E0CE01019632
:104580000E9448190B811C810150110929813A812F
:104590000ECF81E090E0958F848F28CF0E94000499
:1045A000D40154966D937D938D939C935797C2CF6E
:1045B000CF92DF92EF92FF920F931F93CF93DF93EF
:1045C000CDB7DEB7C658D1090FB6F894DEBF0FBE1F
:1045D000CDBF8C01CE010196CF57DF4F99838883E1
:1045E000C158D040CD57DF4F19821882C358D040F0
:1045F00080E890E0CB57DF4F99838883C558D0403F
:104600006FE572E0CE018F579F4F0E94481966E018
:1046100070E0CE018F579F4F0E94871BB801CE01DB
:104620008F579F4F0E947019CD57DF4F0881198116
:10463000C358D04001501109CF57DF4F288139812D
:10464000C158D040D12CC12CF12CE12C50E040E0DD
:1046500064E188E296E00E94A720CA57DF4F0FB6B8
:10466000F894DEBF0FBECDBFDF91CF911F910F91A8
:10467000FF90EF90DF90CF900895CF92DF92EF926E
:10468000FF920F931F93CF93DF93CDB7DEB7C6583A
:10469000D1090FB6F894DEBF0FBECDBF7C018B01F0
:1046A000CE010196CF57DF4F99838883C158D04000
:1046B000CD57DF4F19821882C358D04080E890E070
:1046C000CB57DF4F99838883C558D0406FE572E0A0
:1046D000CE018F579F4F0E944819B701CE018F57C7
:1046E0009F4F0E94871BB801CE018F579F4F0E949A
:1046F000871BCD57DF4F08811981C358D040015027
:104700001109CF57DF4F28813981C158D040D12CB2
:10471000C12CF12CE12C50E040E064E188E296E00D
:104720000E94A720CA57DF4F0FB6F894DEBF0FBE16
:10473000CDBFDF91CF911F910F91FF90EF90DF9050
:10474000CF9008958F929F92AF92BF92CF92DF92B7
:10475000EF92FF920F931F93CF93DF93CDB7DEB706
:10476000C75AD1090FB6F894DEBF0FBECDBF0E9465
:1047700055096B017C01CE0101964C01CE55DF4FEE
:1047800099838883C25AD040CC55DF4F1982188252
:10479000C45AD04020E8A22EB12CCA55DF4FB982AE
:1047A000A882C65AD0406FE572E08F559F4F0E9495
:1047B000481961E070E0CE018E559F4F0E94871B23
:1047C0008E010F571F4F23E045E0C701B6010E943D
:1047D000D52FB801CE018E559F4F0E944819CC5558
:1047E000DF4F08811981C45AD04001501109CE55BC
:1047F000DF4F28813981C25AD040D12CC12CF12CF5
:10480000E12C50E040E064E188E296E00E94A720BD
:104810000E9481098C01CE55DF4F99828882C25A4D
:10482000D040CC55DF4F19821882C45AD040CA55A7
:10483000DF4FB982A882C65AD0406FE572E0CE0140
:104840008E559F4F0E94481963E070E0CE018E554F
:104850009F4F0E94871B4AE0BE016F577F4FC801E0
:104860000E943232BE016F577F4FCE018E559F4F4F
:104870000E944819CC55DF4F08811981C45AD04095
:1048800001501109CE55DF4F28813981C25AD040DD
:1048900050E040E064E188E296E00E94A720C9551C
:1048A000DF4F0FB6F894DEBF0FBECDBFDF91CF91C3
:1048B0001F910F91FF90EF90DF90CF90BF90AF903E
:1048C0009F908F9008951F920F920FB60F92112410
:1048D0002F933F938F939F93AF93BF9380916604E1
:1048E00090916704A0916804B091690430916504C7
:1048F00023E0230F2D3758F50196A11DB11D2093FC
:1049000065048093660490936704A0936804B09351
:10491000690480916A0490916B04A0916C04B09139
:104920006D040196A11DB11D80936A0490936B04E0
:10493000A0936C04B0936D04BF91AF919F918F9140
:104940003F912F910F900FBE0F901F90189526E862
:10495000230F0296A11DB11DD2CF1F920F920FB649
:104960000F9211242F933F934F935F936F937F93F5
:104970008F939F93AF93BF93EF93FF938BE894E054
:104980000E94E404FF91EF91BF91AF919F918F91AD
:104990007F916F915F914F913F912F910F900FBE3B
:1049A0000F901F9018951F920F920FB60F9211241F
:1049B0002F938F939F93EF93FF93E0919B04F0913C
:1049C0009C048081E091A104F091A20482FD1BC0AF
:1049D00090818091A4048F5F8F732091A50482172A
:1049E00041F0E091A404F0E0E557FB4F958F8093F0
:1049F000A404FF91EF919F918F912F910F900FBE83
:104A00000F901F9018958081F4CF1F920F920FB6D0
:104A10000F9211242F933F934F935F936F937F9344
:104A20008F939F93AF93BF93EF93FF938091B900C0
:104A3000887F803609F44AC0F0F5883209F4A7C0AF
:104A400018F5803109F49BC0B8F4882309F4F9C043
:104A5000883009F494C0FF91EF91BF91AF919F917D
:104A60008F917F916F915F914F913F912F910F9017
:104A70000FBE0F901F901895883109F488C08032BE
:104A800051F78093C10314C0803409F49DC040F4F1
:104A90008033B9F38833F9F68093C10385ECB0C055
:104AA000803509F485C0883509F496C0883499F6B4
:104AB0000E94B019D0CF883909F48CC038F58837F6
:104AC00029F050F4883611F0803729F683E080937E
:104AD000C30310929C0357C0883809F47BC0803907
:104AE00019F0803809F0B7CF80919C03803208F02C
:104AF00071C0E0919C0381E08E0F80939C038091B4
:104B0000BB00F0E0E458FC4F80833DC0803B39F0AF
:104B1000E0F4803A09F479C0883A09F09CCF84E047
:104B20008093C30310927B0310927A03E0915B049D
:104B3000F0915C04099580917A0381110FC081E0A6
:104B400080937A0310925A0309C0803C09F4A6CFDF
:104B5000883C09F4A3CF883B09F07DCFE0917B032B
:104B600081E08E0F80937B03F0E0E65AFC4F80815A
:104B70008093BB0090917B0380917A0329C0809140
:104B80009E038093BB0085EC8093BC0064CF909122
:104B9000C0038091BF03981758F5E091C00381E0EE
:104BA0008E0F8093C003F0E0E156FC4F8081E9CF87
:104BB000E091C00381E08E0F8093C0038091BB0021
:104BC000F0E0E156FC4F80839091C0038091BF03D9
:104BD0009817C8F285E8D8CFE091C00381E08E0F26
:104BE0008093C0038091BB00F0E0E156FC4F8083CE
:104BF0008091C20381115CCF81E080939D0384EAA0
:104C00008093BC001092C30326CF85EC8093BC0038
:104C10001092C30380919C03803230F4E0919C0396
:104C2000F0E0E458FC4F108260919C0370E0E0914A
:104C30005904F0915A048CE793E0099510929C0373
:104C40000ACF1092C10334CFCF93DF93BC018BE81E
:104C500094E00E944C0AEC016DEC71E08BE894E06A
:104C60000E944C0A8C0F9D1FDF91CF910895DC01AB
:104C7000ED91FC911197309761F012962D913C9136
:104C80001397E217F30728F401900020E9F7ED935A
:104C9000FC930895FC0180819181009739F0228175
:104CA00033818217930710F40C94BC3190E080E0BC
:104CB0000895AF92BF92CF92DF92EF92FF920F933F
:104CC0001F93CF93DF93CDB7DEB7CC5CD1090FB67E
:104CD000F894DEBF0FBECDBF5C01CE0189579F4F58
:104CE000C953DF4F99838883C75CD040C753DF4FD8
:104CF00019821882C95CD04080E490E0C553DF4F30
:104D000099838883CB5CD0406CE472E0CE018953F8
:104D10009F4F0E94481961E572E0CE0189539F4F71
:104D20000E94701946E850E06DE671E0CE010196F0
:104D30000E940132C753DF4FC880D980C95CD04080
:104D400081E0C81AD108C953DF4FE880F980C75CF9
:104D5000D04006E810E09E012F5F3F4F50E040E05A
:104D600061E1C5010E94A720C453DF4F0FB6F8943C
:104D7000DEBF0FBECDBFDF91CF911F910F91FF908E
:104D8000EF90DF90CF90BF90AF900895EBE8F4E004
:104D90001382128288EE93E0A0E0B0E084839583D2
:104DA000A683B78329E631E03183208325EC30E008
:104DB0003587248724EC30E03787268720EC30E0E5
:104DC000318B208B21EC30E0338B228B22EC30E0D6
:104DD000358B248B26EC30E0378B268B118E128E90
:104DE000138E148EE8E2F5E0138212828483958399
:104DF000A683B7838BE791E091838083E4E3F5E0BA
:104E00008BEC91E09183808312821382148215824D
:104E1000EAE3F5E091838083128213821482158283
:104E2000E0E4F5E09183808312821382148215827C
:104E3000E6E4F5E091838083128213821482158266
:104E4000ECE4F5E091838083128213821482158250
:104E5000E8E5F5E091838083128213821482158243
:104E6000E2E5F5E091838083128213821482158239
:104E7000EEE5F5E09183808312821382148215821D
:104E8000E4E6F5E091838083128213821482158216
:104E9000EDE6F6E0918380831282138214821582FC
:104EA000EEE5F6E01382128229E931E031832083B6
:104EB00024E0248728EE33E036872587A1E5B6E095
:104EC00013969C938E93129714961D921D921D9289
:104ED0001C92179719961C921E9218971B961C925B
:104EE0001E921A971C961C921C971196FC93EE9397
:104EF00040E757E160E070E0448355836683778341
:104F0000E8E2F6E011821082128213821482158286
:104F10001682178210861186B387A287158614869B
:104F200017861686108A118A128A138A148A158A9D
:104F3000168A178A108E118E128E138E158E148E6D
:104F4000178E168E10A212A211A28FEF9FEF9093D0
:104F5000270680932606EAE6F5E0138212828DE8A2
:104F600091E09183808387E2848380E1818782E07E
:104F7000828713860895CF93DF93CDB7DEB7E3978B
:104F80000FB6F894DEBF0FBECDBF789484B58260B3
:104F900084BD84B5816084BD85B5826085BD85B5DD
:104FA000816085BD80916E00816080936E0010925B
:104FB00081008091810082608093810080918100D6
:104FC0008160809381008091800081608093800067
:104FD0008091B10084608093B1008091B0008160C5
:104FE0008093B00080917A00846080937A008091F1
:104FF0007A00826080937A0080917A008160809349
:105000007A0080917A00806880937A001092C100C3
:105010000E9460020E94120B84EE92E00E945B0AE2
:105020008EEF80934B069DEE90934C062AEB2093D7
:105030004D0680934E0680934F069093500620E0D5
:1050400031E0D9010D900020E9F79D012150314058
:10505000A0E0B1E0E1E0F0E0AD0140505140421786
:10506000530784F4AF014F5F5F4F6D91E85DF94FD7
:1050700083A1862783A34630510514F041E050E018
:10508000FA01EACF8091510481112AC010923904AB
:105090001092380488EE93E0A0E0B0E080933A04E8
:1050A00090933B04A0933C04B0933D048FE391E0C4
:1050B00090933704809336048BEC91E090934504F1
:1050C00080934404109246041092470410924804BE
:1050D0001092490484E080934E0481E0809351044F
:1050E00083EF93E09093F2038093F1038091F003B8
:1050F0008111ADC060E372E080E090E00E94CD03DA
:10510000DFB6F8940DE213E0E1E4EE2EE3E0FE2ECC
:105110008091EE03811125C0F8018491F7019491EB
:10512000E82FF0E0EE0FFF1FEE50FD4FA591B49178
:105130008C91982321F461E08AE00E94CC0261E026
:105140008AE00E94FA028CB580618CBD8CB58064C7
:105150008CBD61E08DE00E94FA0261E08BE00E946C
:10516000FA028091EE038F5F8093EE03DFBEF801B9
:105170000491E02FF0E0EE0FFF1FE450FD4F85910A
:1051800094919093ED038093EC03F701E490E09207
:10519000EB0361E08AE00E94FA020E947F0780E54B
:1051A00091E00E948A0284E380938A0480E80E944E
:1051B0004B080E94E10D882309F432C288E00E9466
:1051C0004B080E94CE0D883009F02AC280E10E946F
:1051D0004B080E94CE0D803109F022C280E00E946F
:1051E0004B080E94CE0D182F81111AC241E050E0E9
:1051F000BE016F5F7F4F8FE190E00E94590C898163
:10520000833009F00DC280E48093EF0342E06EE149
:1052100070E0812F0E94A70842E06FE170E0812FCB
:105220000E94A7081F5F143089F740E06EE170E02C
:10523000812F0E94A70840E06FE170E0812F0E945B
:10524000A7081F5F183089F781E08093F00380E59D
:1052500091E00E948A0246E050E06BE476E089E04B
:1052600090E00E949B078BEC91E09A8389831B82DC
:105270001C821D821E8244E050E0BE016D5F7F4FA4
:105280008FE090E00E949B070091F1031091F203E0
:10529000D80192961D921D921D921C929597F8012D
:1052A00016A217A210A611A69A961D921D921D92E3
:1052B0001C929D9780E69AEEA0E0B0E086AB97AB9B
:1052C000A0AFB1AF80EA9FE0A0E0B0E082AF93AFC3
:1052D000A4AFB5AFD801189686E0FD01282F119232
:1052E0002A95E9F79801225F3F4F94E1F901119265
:1052F0009A95E9F7EBE4F6E001900D928A95E1F7D3
:105300002C5C3F4F39AB28ABD9011C920E94643111
:105310002FEC37E040E050E00E94B235DC01CB01D9
:105320000196A11DB11DF80184839583A683B783DF
:1053300080839183A283B3835801F3E4AF0EB11C41
:10534000C5010E94290D64E470E0C5010E9492101D
:10535000882309F4CEC10E9400042B013C0143E0E4
:10536000242E58EEC52E53E0D52EE12CF12C912C95
:10537000812CA8A9B9A98C918330B9F18111C9C137
:10538000F80184819581A681B7810196A11DB11D87
:1053900084839583A683B7830E94000464197509EA
:1053A00086099709A70196010E941B36A90161E0B1
:1053B000C8010E943A1881E0A8A9B9A98C93F1E02C
:1053C0008F169104B1F20E940004641975098609D0
:1053D0009709D801D6962D913D914D915C91D99721
:1053E000261737074807590710F6C5010E94290DEF
:1053F000F80184819581A681B7810196A11DB11D17
:1054000084839583A683B7830E940004F801FE96E7
:1054100060837183828393838A94892809F069C1A8
:1054200080E591E00E948A020091F1031091F2035D
:10543000B801625F7F4FCE0101960E94371444E0AD
:1054400050E0BE016D5F7F4F8FE090E00E949B07B0
:10545000B8016A5E7F4FCE0101960E94371444E086
:1054600050E0BE016D5F7F4F81E090E00E949B079E
:10547000B8016E5E7F4FCE0101960E94371444E062
:1054800050E0BE016D5F7F4F85E090E00E949B077A
:10549000B801625E7F4FCE0101960E9437148B8166
:1054A0009C81AD81BE818093540590935505A09356
:1054B0005605B09357050E94A8037F738091210180
:1054C000909122016827792770932201609321012E
:1054D00068EE73E080E090E00E94CD038BEC91E0F9
:1054E0009A8389831B821C821D821E8280E591E043
:1054F0000E948A0244E050E0BE016D5F7F4F8FE062
:1055000090E00E94590C0E94120B83ED92E00E94E1
:1055100053056B818BE894E00E94CD0A6EE28BE824
:1055200094E00E945F046C818BE894E00E94CD0AB5
:105530006EE28BE894E00E945F046D818BE894E05A
:105540000E94CD0A6EE28BE894E00E945F046E81B7
:105550008BE894E00E94CD0A6DEC71E08BE894E05A
:105560000E944C0A80E091E09093350680933406C7
:105570000E940004DC01CB0188589341A109B109C4
:1055800080933C0690933D06A0933E06B0933F0661
:105590008093380690933906A0933A06B0933B0661
:1055A0008093400690934106A0934206B093430631
:1055B0000E94120B83E192E00E945B0AE0913206A6
:1055C000F091330682E692E09187808780E590E053
:1055D0009387828780913206909133060E94B709A3
:1055E00010924A06109249060E9400044B015C0189
:1055F0008091490690914A06019709F457C10E948B
:105600000004681979098A099B0960357644810587
:10561000910508F04BC188E296E00E94AC1BE8CFF0
:1056200087E380938A0480E80E944B080E94E10D82
:10563000882329F188E00E944B080E94CE0D883013
:10564000F1F480E10E944B080E94CE0D182F8031AA
:10565000B1F480E00E944B080E94CE0D81110FC072
:1056600041E050E0BE016F5F7F4F89E390E00E9410
:10567000590C8981843019F41093EF03E5CD83E34D
:1056800080938A0480E80E944B080E94E10D8823E1
:1056900071F180E10E944B080E94CE0D803139F5F6
:1056A00082E10E944B080E94CE0D823101F580E01C
:1056B0000E944B080E94CE0D811119C084E0809396
:1056C000EF0315E51FA741E050E0BE01615D7F4F8C
:1056D0008BE190E00E949B071EA741E050E0BE01D5
:1056E000625D7F4F8AE190E00E949B07ADCD1092F2
:1056F0008A040E94120B87ED92E00E945B0A60E12F
:1057000077E280E090E00E94CD03F0E0E0E00995D0
:10571000FFCF843001F5F80184819581A681B7819E
:105720000196A11DB11D84839583A683B7830E9432
:1057300000046419750986099709A70196010E945A
:105740001B36A90163E0C8010E943A18E2E0A8A94B
:10575000B9A9EC9334CE813069F5D801DA964D9130
:105760005D916D917C91DD979E012F5F3F4FC80148
:105770000E94E819382EB2E08B1391C089819A817A
:10578000AB81BC81F80184839583A683B7830E9493
:1057900000046419750986099709A70196010E94FA
:1057A0001B36A90163E0C8010E943A18A8A9B9A94B
:1057B0003C9205CE823009F002CEF80142AD53ADE5
:1057C00064AD75AD9E012F5F3F4FC8010E94E8197F
:1057D000382EF5E08F135CC0A8A9B9A92C92F80166
:1057E00082A193A1A4A1B5A1892B8A2B8B2B41F473
:1057F00024E833E040E050E022A333A344A355A3C0
:10580000F80186A197A1A0A5B1A5892B8A2B8B2B86
:1058100061F482A193A1A4A1B5A1B695A79597958E
:10582000879586A397A3A0A7B1A7F80182A593A502
:10583000A4A5B5A5892B8A2B8B2BA9F482A193A1B2
:10584000A4A1B5A1AC01BD0123E07695679557955C
:1058500047952A95D1F7841B950BA60BB70B82A70A
:1058600093A7A4A7B5A7F80186A197A1A0A5B1A564
:1058700086A797A7A0ABB1AB82A593A5A4A5B5A514
:1058800082AB93ABA4ABB5AB88248394912C97CD1A
:10589000F6E08F1304C0A8A9B9A91C9290CDBFEF60
:1058A0003B128DCDE8A9F9A9108289CD80914906D6
:1058B00090914A06019709F08DCE109260041092E3
:1058C0005F0410925E0410925D040E94BA058CE0A1
:1058D00094E090935C0480935B048DE094E090935B
:1058E0005A048093590410926F0580917405823098
:1058F00018F098E090936F058093720562E370E072
:1059000080E090E00E94CD03609175058AE695E005
:105910000E947E0668EE73E080E090E00E94CD0376
:1059200060E38AE695E00E94E3090BE416E4C8010F
:105930000197F1F760E38AE695E00E94E309C80168
:105940000197F1F760E38AE695E00E94E30983E5B9
:1059500092E00197F1F760E28AE695E00E94E309A0
:1059600060916F05606240E08AE695E00E94FC0964
:1059700084E08093700540E06CE08AE695E00E9448
:10598000FC0940E061E08AE695E00E94FC090BE337
:105990001FE1C8010197F1F782E08093710540E0B3
:1059A00066E08AE695E00E94FC0940E062E08AE653
:1059B00095E00E94FC09C8010197F1F788E0809307
:1059C000750560E08AE695E00E947E0640E061E0B1
:1059D0008AE695E00E94FC09C8010197F1F740E0D2
:1059E00062E08AE695E00E94FC09C8010197F1F7A0
:1059F00061E083E00E94FA0261E084E00E94FA0222
:105A000061E085E00E94FA0260E084E00E94CC023E
:105A100060E085E00E94CC0260E080E00E94130A12
:105A20006EE672E08AE695E00E94240B61E080E079
:105A30000E94130A61E772E08AE695E00E94240B57
:105A40000E9460028FEF90E00E946E058FEF90E061
:105A50000E946E058FEF90E00E946E0580912606F1
:105A60009091270697FF22C00E940004E6E7F5E028
:105A700050E040E026E1249FD001259FB00D112485
:105A80008D010A581A4FD801322F1D923A95E9F725
:105A900060837183828393834F5F5F4F7696483034
:105AA000510549F710922706109226068091260686
:105AB000909127060897CCF5E6E7F5E090E080E0C6
:105AC00024813581232B09F021C226813781232BA4
:105AD00009F01CC226E1289F8001299F100D112486
